{
  "_format": "hh-sol-artifact-1",
  "contractName": "MyEpicGame",
  "sourceName": "contracts/MyEpicGame.sol",
  "abi": [
    {
      "inputs": [
        {
          "internalType": "string[]",
          "name": "characterNames",
          "type": "string[]"
        },
        {
          "internalType": "string[]",
          "name": "characterImageURIs",
          "type": "string[]"
        },
        {
          "internalType": "uint256[]",
          "name": "characterHp",
          "type": "uint256[]"
        },
        {
          "internalType": "uint256[]",
          "name": "characterDodgeSkill",
          "type": "uint256[]"
        },
        {
          "internalType": "string",
          "name": "bossName",
          "type": "string"
        },
        {
          "internalType": "string",
          "name": "bossImageURI",
          "type": "string"
        }
      ],
      "stateMutability": "nonpayable",
      "type": "constructor"
    },
    {
      "anonymous": false,
      "inputs": [
        {
          "indexed": true,
          "internalType": "address",
          "name": "owner",
          "type": "address"
        },
        {
          "indexed": true,
          "internalType": "address",
          "name": "approved",
          "type": "address"
        },
        {
          "indexed": true,
          "internalType": "uint256",
          "name": "tokenId",
          "type": "uint256"
        }
      ],
      "name": "Approval",
      "type": "event"
    },
    {
      "anonymous": false,
      "inputs": [
        {
          "indexed": true,
          "internalType": "address",
          "name": "owner",
          "type": "address"
        },
        {
          "indexed": true,
          "internalType": "address",
          "name": "operator",
          "type": "address"
        },
        {
          "indexed": false,
          "internalType": "bool",
          "name": "approved",
          "type": "bool"
        }
      ],
      "name": "ApprovalForAll",
      "type": "event"
    },
    {
      "anonymous": false,
      "inputs": [
        {
          "indexed": false,
          "internalType": "uint256",
          "name": "newPlayerHp",
          "type": "uint256"
        },
        {
          "indexed": false,
          "internalType": "uint256",
          "name": "newPlayerPoints",
          "type": "uint256"
        }
      ],
      "name": "AttackComplete",
      "type": "event"
    },
    {
      "anonymous": false,
      "inputs": [
        {
          "indexed": false,
          "internalType": "address",
          "name": "sender",
          "type": "address"
        },
        {
          "indexed": false,
          "internalType": "uint256",
          "name": "tokenId",
          "type": "uint256"
        },
        {
          "indexed": false,
          "internalType": "uint256",
          "name": "characterIndex",
          "type": "uint256"
        }
      ],
      "name": "CharacterNFTMinted",
      "type": "event"
    },
    {
      "anonymous": false,
      "inputs": [
        {
          "indexed": true,
          "internalType": "address",
          "name": "from",
          "type": "address"
        },
        {
          "indexed": true,
          "internalType": "address",
          "name": "to",
          "type": "address"
        },
        {
          "indexed": true,
          "internalType": "uint256",
          "name": "tokenId",
          "type": "uint256"
        }
      ],
      "name": "Transfer",
      "type": "event"
    },
    {
      "inputs": [
        {
          "internalType": "address",
          "name": "to",
          "type": "address"
        },
        {
          "internalType": "uint256",
          "name": "tokenId",
          "type": "uint256"
        }
      ],
      "name": "approve",
      "outputs": [],
      "stateMutability": "nonpayable",
      "type": "function"
    },
    {
      "inputs": [
        {
          "internalType": "address",
          "name": "owner",
          "type": "address"
        }
      ],
      "name": "balanceOf",
      "outputs": [
        {
          "internalType": "uint256",
          "name": "",
          "type": "uint256"
        }
      ],
      "stateMutability": "view",
      "type": "function"
    },
    {
      "inputs": [
        {
          "internalType": "uint256",
          "name": "tokenId",
          "type": "uint256"
        }
      ],
      "name": "getApproved",
      "outputs": [
        {
          "internalType": "address",
          "name": "",
          "type": "address"
        }
      ],
      "stateMutability": "view",
      "type": "function"
    },
    {
      "inputs": [
        {
          "internalType": "uint256",
          "name": "_nftIndex",
          "type": "uint256"
        }
      ],
      "name": "getAttack",
      "outputs": [],
      "stateMutability": "nonpayable",
      "type": "function"
    },
    {
      "inputs": [],
      "name": "getBigBoss",
      "outputs": [
        {
          "components": [
            {
              "internalType": "string",
              "name": "name",
              "type": "string"
            },
            {
              "internalType": "string",
              "name": "imageURI",
              "type": "string"
            }
          ],
          "internalType": "struct MyEpicGame.BigBoss",
          "name": "",
          "type": "tuple"
        }
      ],
      "stateMutability": "view",
      "type": "function"
    },
    {
      "inputs": [],
      "name": "getDefaultCharacters",
      "outputs": [
        {
          "components": [
            {
              "internalType": "uint256",
              "name": "characterIndex",
              "type": "uint256"
            },
            {
              "internalType": "string",
              "name": "name",
              "type": "string"
            },
            {
              "internalType": "string",
              "name": "imageURI",
              "type": "string"
            },
            {
              "internalType": "uint256",
              "name": "hp",
              "type": "uint256"
            },
            {
              "internalType": "uint256",
              "name": "maxHp",
              "type": "uint256"
            },
            {
              "internalType": "uint256",
              "name": "dodgeSkill",
              "type": "uint256"
            },
            {
              "internalType": "uint256",
              "name": "points",
              "type": "uint256"
            }
          ],
          "internalType": "struct MyEpicGame.CharacterAttributes[]",
          "name": "",
          "type": "tuple[]"
        }
      ],
      "stateMutability": "view",
      "type": "function"
    },
    {
      "inputs": [],
      "name": "getNfts",
      "outputs": [
        {
          "components": [
            {
              "internalType": "uint256",
              "name": "characterIndex",
              "type": "uint256"
            },
            {
              "internalType": "string",
              "name": "name",
              "type": "string"
            },
            {
              "internalType": "string",
              "name": "imageURI",
              "type": "string"
            },
            {
              "internalType": "uint256",
              "name": "hp",
              "type": "uint256"
            },
            {
              "internalType": "uint256",
              "name": "maxHp",
              "type": "uint256"
            },
            {
              "internalType": "uint256",
              "name": "dodgeSkill",
              "type": "uint256"
            },
            {
              "internalType": "uint256",
              "name": "points",
              "type": "uint256"
            }
          ],
          "internalType": "struct MyEpicGame.CharacterAttributes[]",
          "name": "",
          "type": "tuple[]"
        }
      ],
      "stateMutability": "view",
      "type": "function"
    },
    {
      "inputs": [],
      "name": "getUserNfts",
      "outputs": [
        {
          "components": [
            {
              "internalType": "uint256",
              "name": "characterIndex",
              "type": "uint256"
            },
            {
              "internalType": "string",
              "name": "name",
              "type": "string"
            },
            {
              "internalType": "string",
              "name": "imageURI",
              "type": "string"
            },
            {
              "internalType": "uint256",
              "name": "hp",
              "type": "uint256"
            },
            {
              "internalType": "uint256",
              "name": "maxHp",
              "type": "uint256"
            },
            {
              "internalType": "uint256",
              "name": "dodgeSkill",
              "type": "uint256"
            },
            {
              "internalType": "uint256",
              "name": "points",
              "type": "uint256"
            }
          ],
          "internalType": "struct MyEpicGame.CharacterAttributes[]",
          "name": "",
          "type": "tuple[]"
        }
      ],
      "stateMutability": "view",
      "type": "function"
    },
    {
      "inputs": [
        {
          "internalType": "address",
          "name": "owner",
          "type": "address"
        },
        {
          "internalType": "address",
          "name": "operator",
          "type": "address"
        }
      ],
      "name": "isApprovedForAll",
      "outputs": [
        {
          "internalType": "bool",
          "name": "",
          "type": "bool"
        }
      ],
      "stateMutability": "view",
      "type": "function"
    },
    {
      "inputs": [
        {
          "internalType": "uint256",
          "name": "_characterIndex",
          "type": "uint256"
        }
      ],
      "name": "mintCharacterNFT",
      "outputs": [],
      "stateMutability": "nonpayable",
      "type": "function"
    },
    {
      "inputs": [],
      "name": "name",
      "outputs": [
        {
          "internalType": "string",
          "name": "",
          "type": "string"
        }
      ],
      "stateMutability": "view",
      "type": "function"
    },
    {
      "inputs": [
        {
          "internalType": "uint256",
          "name": "tokenId",
          "type": "uint256"
        }
      ],
      "name": "ownerOf",
      "outputs": [
        {
          "internalType": "address",
          "name": "",
          "type": "address"
        }
      ],
      "stateMutability": "view",
      "type": "function"
    },
    {
      "inputs": [
        {
          "internalType": "address",
          "name": "from",
          "type": "address"
        },
        {
          "internalType": "address",
          "name": "to",
          "type": "address"
        },
        {
          "internalType": "uint256",
          "name": "tokenId",
          "type": "uint256"
        }
      ],
      "name": "safeTransferFrom",
      "outputs": [],
      "stateMutability": "nonpayable",
      "type": "function"
    },
    {
      "inputs": [
        {
          "internalType": "address",
          "name": "from",
          "type": "address"
        },
        {
          "internalType": "address",
          "name": "to",
          "type": "address"
        },
        {
          "internalType": "uint256",
          "name": "tokenId",
          "type": "uint256"
        },
        {
          "internalType": "bytes",
          "name": "data",
          "type": "bytes"
        }
      ],
      "name": "safeTransferFrom",
      "outputs": [],
      "stateMutability": "nonpayable",
      "type": "function"
    },
    {
      "inputs": [
        {
          "internalType": "address",
          "name": "operator",
          "type": "address"
        },
        {
          "internalType": "bool",
          "name": "approved",
          "type": "bool"
        }
      ],
      "name": "setApprovalForAll",
      "outputs": [],
      "stateMutability": "nonpayable",
      "type": "function"
    },
    {
      "inputs": [
        {
          "internalType": "bytes4",
          "name": "interfaceId",
          "type": "bytes4"
        }
      ],
      "name": "supportsInterface",
      "outputs": [
        {
          "internalType": "bool",
          "name": "",
          "type": "bool"
        }
      ],
      "stateMutability": "view",
      "type": "function"
    },
    {
      "inputs": [],
      "name": "symbol",
      "outputs": [
        {
          "internalType": "string",
          "name": "",
          "type": "string"
        }
      ],
      "stateMutability": "view",
      "type": "function"
    },
    {
      "inputs": [
        {
          "internalType": "uint256",
          "name": "_tokenId",
          "type": "uint256"
        }
      ],
      "name": "tokenURI",
      "outputs": [
        {
          "internalType": "string",
          "name": "",
          "type": "string"
        }
      ],
      "stateMutability": "view",
      "type": "function"
    },
    {
      "inputs": [
        {
          "internalType": "address",
          "name": "from",
          "type": "address"
        },
        {
          "internalType": "address",
          "name": "to",
          "type": "address"
        },
        {
          "internalType": "uint256",
          "name": "tokenId",
          "type": "uint256"
        }
      ],
      "name": "transferFrom",
      "outputs": [],
      "stateMutability": "nonpayable",
      "type": "function"
    }
  ],
  "bytecode": "0x60806040523480156200001157600080fd5b5060405162004dfe38038062004dfe83398181016040528101906200003791906200060e565b6040518060400160405280600781526020017f416e696d616c73000000000000000000000000000000000000000000000000008152506040518060400160405280600481526020017f414e4d41000000000000000000000000000000000000000000000000000000008152508160009080519060200190620000bb92919062000376565b508060019080519060200190620000d492919062000376565b505050604051806040016040528083815260200182815250600760008201518160000190805190602001906200010c92919062000376565b5060208201518160010190805190602001906200012b92919062000376565b5090505060005b8651811015620003695760096040518060e0016040528083815260200189848151811062000189577f4e487b7100000000000000000000000000000000000000000000000000000000600052603260045260246000fd5b60200260200101518152602001888481518110620001d0577f4e487b7100000000000000000000000000000000000000000000000000000000600052603260045260246000fd5b6020026020010151815260200187848151811062000217577f4e487b7100000000000000000000000000000000000000000000000000000000600052603260045260246000fd5b602002602001015181526020018784815181106200025e577f4e487b7100000000000000000000000000000000000000000000000000000000600052603260045260246000fd5b60200260200101518152602001868481518110620002a5577f4e487b7100000000000000000000000000000000000000000000000000000000600052603260045260246000fd5b60200260200101518152602001600081525090806001815401808255809150506001900390600052602060002090600702016000909190919091506000820151816000015560208201518160010190805190602001906200030892919062000376565b5060408201518160020190805190602001906200032792919062000376565b50606082015181600301556080820151816004015560a0820151816005015560c082015181600601555050600181620003619190620007f7565b905062000132565b50505050505050620009b8565b828054620003849062000894565b90600052602060002090601f016020900481019282620003a85760008555620003f4565b82601f10620003c357805160ff1916838001178555620003f4565b82800160010185558215620003f4579182015b82811115620003f3578251825591602001919060010190620003d6565b5b50905062000403919062000407565b5090565b5b808211156200042257600081600090555060010162000408565b5090565b60006200043d620004378462000763565b6200073a565b905080838252602082019050828560208602820111156200045d57600080fd5b60005b85811015620004ac57815167ffffffffffffffff8111156200048157600080fd5b808601620004908982620005ca565b8552602085019450602084019350505060018101905062000460565b5050509392505050565b6000620004cd620004c78462000792565b6200073a565b90508083825260208201905082856020860282011115620004ed57600080fd5b60005b85811015620005215781620005068882620005f7565b845260208401935060208301925050600181019050620004f0565b5050509392505050565b6000620005426200053c84620007c1565b6200073a565b9050828152602081018484840111156200055b57600080fd5b620005688482856200085e565b509392505050565b600082601f8301126200058257600080fd5b81516200059484826020860162000426565b91505092915050565b600082601f830112620005af57600080fd5b8151620005c1848260208601620004b6565b91505092915050565b600082601f830112620005dc57600080fd5b8151620005ee8482602086016200052b565b91505092915050565b60008151905062000608816200099e565b92915050565b60008060008060008060c087890312156200062857600080fd5b600087015167ffffffffffffffff8111156200064357600080fd5b6200065189828a0162000570565b965050602087015167ffffffffffffffff8111156200066f57600080fd5b6200067d89828a0162000570565b955050604087015167ffffffffffffffff8111156200069b57600080fd5b620006a989828a016200059d565b945050606087015167ffffffffffffffff811115620006c757600080fd5b620006d589828a016200059d565b935050608087015167ffffffffffffffff811115620006f357600080fd5b6200070189828a01620005ca565b92505060a087015167ffffffffffffffff8111156200071f57600080fd5b6200072d89828a01620005ca565b9150509295509295509295565b60006200074662000759565b9050620007548282620008ca565b919050565b6000604051905090565b600067ffffffffffffffff8211156200078157620007806200095e565b5b602082029050602081019050919050565b600067ffffffffffffffff821115620007b057620007af6200095e565b5b602082029050602081019050919050565b600067ffffffffffffffff821115620007df57620007de6200095e565b5b620007ea826200098d565b9050602081019050919050565b6000620008048262000854565b9150620008118362000854565b9250827fffffffffffffffffffffffffffffffffffffffffffffffffffffffffffffffff0382111562000849576200084862000900565b5b828201905092915050565b6000819050919050565b60005b838110156200087e57808201518184015260208101905062000861565b838111156200088e576000848401525b50505050565b60006002820490506001821680620008ad57607f821691505b60208210811415620008c457620008c36200092f565b5b50919050565b620008d5826200098d565b810181811067ffffffffffffffff82111715620008f757620008f66200095e565b5b80604052505050565b7f4e487b7100000000000000000000000000000000000000000000000000000000600052601160045260246000fd5b7f4e487b7100000000000000000000000000000000000000000000000000000000600052602260045260246000fd5b7f4e487b7100000000000000000000000000000000000000000000000000000000600052604160045260246000fd5b6000601f19601f8301169050919050565b620009a98162000854565b8114620009b557600080fd5b50565b61443680620009c86000396000f3fe608060405234801561001057600080fd5b50600436106101215760003560e01c806374bce80a116100ad578063c87b56dd11610071578063c87b56dd14610308578063cff840f014610338578063d8cb55e314610354578063e985e9c514610372578063f8b81ef7146103a257610121565b806374bce80a14610276578063840a2ab81461029457806395d89b41146102b2578063a22cb465146102d0578063b88d4fde146102ec57610121565b8063095ea7b3116100f4578063095ea7b3146101c257806323b872dd146101de57806342842e0e146101fa5780636352211e1461021657806370a082311461024657610121565b806301ffc9a7146101265780630665f9611461015657806306fdde0314610174578063081812fc14610192575b600080fd5b610140600480360381019061013b9190612f5a565b6103be565b60405161014d919061372c565b60405180910390f35b61015e6104a0565b60405161016b9190613909565b60405180910390f35b61017c6105de565b6040516101899190613747565b60405180910390f35b6101ac60048036038101906101a79190612fac565b610670565b6040516101b9919061366c565b60405180910390f35b6101dc60048036038101906101d79190612f1e565b6106b6565b005b6101f860048036038101906101f39190612e18565b6107ce565b005b610214600480360381019061020f9190612e18565b61082e565b005b610230600480360381019061022b9190612fac565b61084e565b60405161023d919061366c565b60405180910390f35b610260600480360381019061025b9190612db3565b610900565b60405161026d919061392b565b60405180910390f35b61027e6109b8565b60405161028b919061370a565b60405180910390f35b61029c610b6d565b6040516102a9919061370a565b60405180910390f35b6102ba610ed6565b6040516102c79190613747565b60405180910390f35b6102ea60048036038101906102e59190612ee2565b610f68565b005b61030660048036038101906103019190612e67565b610f7e565b005b610322600480360381019061031d9190612fac565b610fe0565b60405161032f9190613747565b60405180910390f35b610352600480360381019061034d9190612fac565b611295565b005b61035c6115f2565b604051610369919061370a565b60405180910390f35b61038c60048036038101906103879190612ddc565b6117a7565b604051610399919061372c565b60405180910390f35b6103bc60048036038101906103b79190612fac565b61183b565b005b60007f80ac58cd000000000000000000000000000000000000000000000000000000007bffffffffffffffffffffffffffffffffffffffffffffffffffffffff1916827bffffffffffffffffffffffffffffffffffffffffffffffffffffffff1916148061048957507f5b5e139f000000000000000000000000000000000000000000000000000000007bffffffffffffffffffffffffffffffffffffffffffffffffffffffff1916827bffffffffffffffffffffffffffffffffffffffffffffffffffffffff1916145b80610499575061049882611d4e565b5b9050919050565b6104a8612b9b565b60076040518060400160405290816000820180546104c590613c1d565b80601f01602080910402602001604051908101604052809291908181526020018280546104f190613c1d565b801561053e5780601f106105135761010080835404028352916020019161053e565b820191906000526020600020905b81548152906001019060200180831161052157829003601f168201915b5050505050815260200160018201805461055790613c1d565b80601f016020809104026020016040519081016040528092919081815260200182805461058390613c1d565b80156105d05780601f106105a5576101008083540402835291602001916105d0565b820191906000526020600020905b8154815290600101906020018083116105b357829003601f168201915b505050505081525050905090565b6060600080546105ed90613c1d565b80601f016020809104026020016040519081016040528092919081815260200182805461061990613c1d565b80156106665780601f1061063b57610100808354040283529160200191610666565b820191906000526020600020905b81548152906001019060200180831161064957829003601f168201915b5050505050905090565b600061067b82611db8565b6004600083815260200190815260200160002060009054906101000a900473ffffffffffffffffffffffffffffffffffffffff169050919050565b60006106c18261084e565b90508073ffffffffffffffffffffffffffffffffffffffff168373ffffffffffffffffffffffffffffffffffffffff161415610732576040517f08c379a0000000000000000000000000000000000000000000000000000000008152600401610729906138c9565b60405180910390fd5b8073ffffffffffffffffffffffffffffffffffffffff16610751611e03565b73ffffffffffffffffffffffffffffffffffffffff161480610780575061077f8161077a611e03565b6117a7565b5b6107bf576040517f08c379a00000000000000000000000000000000000000000000000000000000081526004016107b690613849565b60405180910390fd5b6107c98383611e0b565b505050565b6107df6107d9611e03565b82611ec4565b61081e576040517f08c379a0000000000000000000000000000000000000000000000000000000008152600401610815906138e9565b60405180910390fd5b610829838383611f59565b505050565b61084983838360405180602001604052806000815250610f7e565b505050565b6000806002600084815260200190815260200160002060009054906101000a900473ffffffffffffffffffffffffffffffffffffffff169050600073ffffffffffffffffffffffffffffffffffffffff168173ffffffffffffffffffffffffffffffffffffffff1614156108f7576040517f08c379a00000000000000000000000000000000000000000000000000000000081526004016108ee906138a9565b60405180910390fd5b80915050919050565b60008073ffffffffffffffffffffffffffffffffffffffff168273ffffffffffffffffffffffffffffffffffffffff161415610971576040517f08c379a000000000000000000000000000000000000000000000000000000000815260040161096890613809565b60405180910390fd5b600360008373ffffffffffffffffffffffffffffffffffffffff1673ffffffffffffffffffffffffffffffffffffffff168152602001908152602001600020549050919050565b60606009805480602002602001604051908101604052809291908181526020016000905b82821015610b6457838290600052602060002090600702016040518060e001604052908160008201548152602001600182018054610a1990613c1d565b80601f0160208091040260200160405190810160405280929190818152602001828054610a4590613c1d565b8015610a925780601f10610a6757610100808354040283529160200191610a92565b820191906000526020600020905b815481529060010190602001808311610a7557829003601f168201915b50505050508152602001600282018054610aab90613c1d565b80601f0160208091040260200160405190810160405280929190818152602001828054610ad790613c1d565b8015610b245780601f10610af957610100808354040283529160200191610b24565b820191906000526020600020905b815481529060010190602001808311610b0757829003601f168201915b50505050508152602001600382015481526020016004820154815260200160058201548152602001600682015481525050815260200190600101906109dc565b50505050905090565b60606000600b60003373ffffffffffffffffffffffffffffffffffffffff1673ffffffffffffffffffffffffffffffffffffffff168152602001908152602001600020805480602002602001604051908101604052809291908181526020018280548015610bfa57602002820191906000526020600020905b815481526020019060010190808311610be6575b505050505090506000815167ffffffffffffffff811115610c44577f4e487b7100000000000000000000000000000000000000000000000000000000600052604160045260246000fd5b604051908082528060200260200182016040528015610c7d57816020015b610c6a612bb5565b815260200190600190039081610c625790505b50905060005b8251811015610ecd57600a838281518110610cc7577f4e487b7100000000000000000000000000000000000000000000000000000000600052603260045260246000fd5b602002602001015181548110610d06577f4e487b7100000000000000000000000000000000000000000000000000000000600052603260045260246000fd5b90600052602060002090600702016040518060e001604052908160008201548152602001600182018054610d3990613c1d565b80601f0160208091040260200160405190810160405280929190818152602001828054610d6590613c1d565b8015610db25780601f10610d8757610100808354040283529160200191610db2565b820191906000526020600020905b815481529060010190602001808311610d9557829003601f168201915b50505050508152602001600282018054610dcb90613c1d565b80601f0160208091040260200160405190810160405280929190818152602001828054610df790613c1d565b8015610e445780601f10610e1957610100808354040283529160200191610e44565b820191906000526020600020905b815481529060010190602001808311610e2757829003601f168201915b50505050508152602001600382015481526020016004820154815260200160058201548152602001600682015481525050828281518110610eae577f4e487b7100000000000000000000000000000000000000000000000000000000600052603260045260246000fd5b6020026020010181905250600181610ec69190613a52565b9050610c83565b50809250505090565b606060018054610ee590613c1d565b80601f0160208091040260200160405190810160405280929190818152602001828054610f1190613c1d565b8015610f5e5780601f10610f3357610100808354040283529160200191610f5e565b820191906000526020600020905b815481529060010190602001808311610f4157829003601f168201915b5050505050905090565b610f7a610f73611e03565b83836121c0565b5050565b610f8f610f89611e03565b83611ec4565b610fce576040517f08c379a0000000000000000000000000000000000000000000000000000000008152600401610fc5906138e9565b60405180910390fd5b610fda8484848461232d565b50505050565b606081600a8054905011611029576040517f08c379a000000000000000000000000000000000000000000000000000000000815260040161102090613889565b60405180910390fd5b6000600a8381548110611065577f4e487b7100000000000000000000000000000000000000000000000000000000600052603260045260246000fd5b90600052602060002090600702016040518060e00160405290816000820154815260200160018201805461109890613c1d565b80601f01602080910402602001604051908101604052809291908181526020018280546110c490613c1d565b80156111115780601f106110e657610100808354040283529160200191611111565b820191906000526020600020905b8154815290600101906020018083116110f457829003601f168201915b5050505050815260200160028201805461112a90613c1d565b80601f016020809104026020016040519081016040528092919081815260200182805461115690613c1d565b80156111a35780601f10611178576101008083540402835291602001916111a3565b820191906000526020600020905b81548152906001019060200180831161118657829003601f168201915b50505050508152602001600382015481526020016004820154815260200160058201548152602001600682015481525050905060006111e58260600151612389565b905060006111f68360800151612389565b905060006112078460a00151612389565b905060006112188560c00151612389565b90506000856020015161122a89612389565b8760400151878787876040516020016112499796959493929190613582565b6040516020818303038152906040529050600061126582612536565b604051602001611275919061364a565b604051602081830303815290604052905080975050505050505050919050565b80600b60003373ffffffffffffffffffffffffffffffffffffffff1673ffffffffffffffffffffffffffffffffffffffff1681526020019081526020016000208054905011611319576040517f08c379a000000000000000000000000000000000000000000000000000000000815260040161131090613889565b60405180910390fd5b6000600b60003373ffffffffffffffffffffffffffffffffffffffff1673ffffffffffffffffffffffffffffffffffffffff1681526020019081526020016000208281548110611392577f4e487b7100000000000000000000000000000000000000000000000000000000600052603260045260246000fd5b906000526020600020015490506000600a82815481106113db577f4e487b7100000000000000000000000000000000000000000000000000000000600052603260045260246000fd5b906000526020600020906007020190506000816003015411611432576040517f08c379a000000000000000000000000000000000000000000000000000000000815260040161142990613829565b60405180910390fd5b60004290506000806011836114479190613cc9565b141561145657600a905061150c565b6000600d836114659190613cc9565b1415611474576008905061150b565b6000600b836114839190613cc9565b1415611492576006905061150a565b60006007836114a19190613cc9565b14156114b05760059050611509565b60006005836114bf9190613cc9565b14156114ce5760049050611508565b60006003836114dd9190613cc9565b14156114ec5760039050611507565b60006002836114fb9190613cc9565b141561150657600290505b5b5b5b5b5b5b600081600a85600401546115209190613aa8565b61152a9190613ad9565b90508084600301541015611547576000846003018190555061157f565b8084600301546115579190613b33565b846003018190555083600501548460030160008282546115779190613a52565b925050819055505b83600501548161158f9190613a52565b8460060160008282546115a29190613a52565b925050819055507f838ab28464562786a6c4ab2311964b82fa60bd9b14aa7e856af1f3f18d41a414846003015485600601546040516115e2929190613946565b60405180910390a1505050505050565b6060600a805480602002602001604051908101604052809291908181526020016000905b8282101561179e57838290600052602060002090600702016040518060e00160405290816000820154815260200160018201805461165390613c1d565b80601f016020809104026020016040519081016040528092919081815260200182805461167f90613c1d565b80156116cc5780601f106116a1576101008083540402835291602001916116cc565b820191906000526020600020905b8154815290600101906020018083116116af57829003601f168201915b505050505081526020016002820180546116e590613c1d565b80601f016020809104026020016040519081016040528092919081815260200182805461171190613c1d565b801561175e5780601f106117335761010080835404028352916020019161175e565b820191906000526020600020905b81548152906001019060200180831161174157829003601f168201915b5050505050815260200160038201548152602001600482015481526020016005820154815260200160068201548152505081526020019060010190611616565b50505050905090565b6000600560008473ffffffffffffffffffffffffffffffffffffffff1673ffffffffffffffffffffffffffffffffffffffff16815260200190815260200160002060008373ffffffffffffffffffffffffffffffffffffffff1673ffffffffffffffffffffffffffffffffffffffff16815260200190815260200160002060009054906101000a900460ff16905092915050565b600061184760066126f4565b90506118533382612702565b600a6040518060e00160405280848152602001600985815481106118a0577f4e487b7100000000000000000000000000000000000000000000000000000000600052603260045260246000fd5b906000526020600020906007020160010180546118bc90613c1d565b80601f01602080910402602001604051908101604052809291908181526020018280546118e890613c1d565b80156119355780601f1061190a57610100808354040283529160200191611935565b820191906000526020600020905b81548152906001019060200180831161191857829003601f168201915b5050505050815260200160098581548110611979577f4e487b7100000000000000000000000000000000000000000000000000000000600052603260045260246000fd5b9060005260206000209060070201600201805461199590613c1d565b80601f01602080910402602001604051908101604052809291908181526020018280546119c190613c1d565b8015611a0e5780601f106119e357610100808354040283529160200191611a0e565b820191906000526020600020905b8154815290600101906020018083116119f157829003601f168201915b5050505050815260200160098581548110611a52577f4e487b7100000000000000000000000000000000000000000000000000000000600052603260045260246000fd5b906000526020600020906007020160030154815260200160098581548110611aa3577f4e487b7100000000000000000000000000000000000000000000000000000000600052603260045260246000fd5b906000526020600020906007020160040154815260200160098581548110611af4577f4e487b7100000000000000000000000000000000000000000000000000000000600052603260045260246000fd5b906000526020600020906007020160050154815260200160098581548110611b45577f4e487b7100000000000000000000000000000000000000000000000000000000600052603260045260246000fd5b9060005260206000209060070201600601548152509080600181540180825580915050600190039060005260206000209060070201600090919091909150600082015181600001556020820151816001019080519060200190611ba9929190612bf2565b506040820151816002019080519060200190611bc6929190612bf2565b50606082015181600301556080820151816004015560a0820151816005015560c0820151816006015550506000600b60003373ffffffffffffffffffffffffffffffffffffffff1673ffffffffffffffffffffffffffffffffffffffff168152602001908152602001600020805490501115611ca757600b60003373ffffffffffffffffffffffffffffffffffffffff1673ffffffffffffffffffffffffffffffffffffffff168152602001908152602001600020819080600181540180825580915050600190039060005260206000200160009091909190915055611d05565b604051806020016040528082815250600b60003373ffffffffffffffffffffffffffffffffffffffff1673ffffffffffffffffffffffffffffffffffffffff168152602001908152602001600020906001611d03929190612c78565b505b611d0f6006612720565b7f4bc303fd457a97b4691b9af582ce71868a3d258638c8d4f8c60988a0f0bfb8cd338284604051611d42939291906136d3565b60405180910390a15050565b60007f01ffc9a7000000000000000000000000000000000000000000000000000000007bffffffffffffffffffffffffffffffffffffffffffffffffffffffff1916827bffffffffffffffffffffffffffffffffffffffffffffffffffffffff1916149050919050565b611dc181612736565b611e00576040517f08c379a0000000000000000000000000000000000000000000000000000000008152600401611df7906138a9565b60405180910390fd5b50565b600033905090565b816004600083815260200190815260200160002060006101000a81548173ffffffffffffffffffffffffffffffffffffffff021916908373ffffffffffffffffffffffffffffffffffffffff160217905550808273ffffffffffffffffffffffffffffffffffffffff16611e7e8361084e565b73ffffffffffffffffffffffffffffffffffffffff167f8c5be1e5ebec7d5bd14f71427d1e84f3dd0314c0f7b2291e5b200ac8c7c3b92560405160405180910390a45050565b600080611ed08361084e565b90508073ffffffffffffffffffffffffffffffffffffffff168473ffffffffffffffffffffffffffffffffffffffff161480611f125750611f1181856117a7565b5b80611f5057508373ffffffffffffffffffffffffffffffffffffffff16611f3884610670565b73ffffffffffffffffffffffffffffffffffffffff16145b91505092915050565b8273ffffffffffffffffffffffffffffffffffffffff16611f798261084e565b73ffffffffffffffffffffffffffffffffffffffff1614611fcf576040517f08c379a0000000000000000000000000000000000000000000000000000000008152600401611fc690613789565b60405180910390fd5b600073ffffffffffffffffffffffffffffffffffffffff168273ffffffffffffffffffffffffffffffffffffffff16141561203f576040517f08c379a0000000000000000000000000000000000000000000000000000000008152600401612036906137c9565b60405180910390fd5b61204a8383836127a2565b612055600082611e0b565b6001600360008573ffffffffffffffffffffffffffffffffffffffff1673ffffffffffffffffffffffffffffffffffffffff16815260200190815260200160002060008282546120a59190613b33565b925050819055506001600360008473ffffffffffffffffffffffffffffffffffffffff1673ffffffffffffffffffffffffffffffffffffffff16815260200190815260200160002060008282546120fc9190613a52565b92505081905550816002600083815260200190815260200160002060006101000a81548173ffffffffffffffffffffffffffffffffffffffff021916908373ffffffffffffffffffffffffffffffffffffffff160217905550808273ffffffffffffffffffffffffffffffffffffffff168473ffffffffffffffffffffffffffffffffffffffff167fddf252ad1be2c89b69c2b068fc378daa952ba7f163c4a11628f55a4df523b3ef60405160405180910390a46121bb8383836127a7565b505050565b8173ffffffffffffffffffffffffffffffffffffffff168373ffffffffffffffffffffffffffffffffffffffff16141561222f576040517f08c379a0000000000000000000000000000000000000000000000000000000008152600401612226906137e9565b60405180910390fd5b80600560008573ffffffffffffffffffffffffffffffffffffffff1673ffffffffffffffffffffffffffffffffffffffff16815260200190815260200160002060008473ffffffffffffffffffffffffffffffffffffffff1673ffffffffffffffffffffffffffffffffffffffff16815260200190815260200160002060006101000a81548160ff0219169083151502179055508173ffffffffffffffffffffffffffffffffffffffff168373ffffffffffffffffffffffffffffffffffffffff167f17307eab39ab6107e8899845ad3d59bd9653f200f220920489ca2b5937696c3183604051612320919061372c565b60405180910390a3505050565b612338848484611f59565b612344848484846127ac565b612383576040517f08c379a000000000000000000000000000000000000000000000000000000000815260040161237a90613769565b60405180910390fd5b50505050565b606060008214156123d1576040518060400160405280600181526020017f30000000000000000000000000000000000000000000000000000000000000008152509050612531565b600082905060005b600082146124035780806123ec90613c80565b915050600a826123fc9190613aa8565b91506123d9565b60008167ffffffffffffffff811115612445577f4e487b7100000000000000000000000000000000000000000000000000000000600052604160045260246000fd5b6040519080825280601f01601f1916602001820160405280156124775781602001600182028036833780820191505090505b5090505b6000851461252a576001826124909190613b33565b9150600a8561249f9190613cc9565b60306124ab9190613a52565b60f81b8183815181106124e7577f4e487b7100000000000000000000000000000000000000000000000000000000600052603260045260246000fd5b60200101907effffffffffffffffffffffffffffffffffffffffffffffffffffffffffffff1916908160001a905350600a856125239190613aa8565b945061247b565b8093505050505b919050565b6060600082519050600081141561255f57604051806020016040528060008152509150506126ef565b600060036002836125709190613a52565b61257a9190613aa8565b60046125869190613ad9565b905060006020826125979190613a52565b67ffffffffffffffff8111156125d6577f4e487b7100000000000000000000000000000000000000000000000000000000600052604160045260246000fd5b6040519080825280601f01601f1916602001820160405280156126085781602001600182028036833780820191505090505b50905060006040518060600160405280604081526020016143c1604091399050600181016020830160005b868110156126ac5760038101905062ffffff818a015116603f8160121c168401518060081b905060ff603f83600c1c1686015116810190508060081b905060ff603f8360061c1686015116810190508060081b905060ff603f831686015116810190508060e01b90508084526004840193505050612633565b5060038606600181146126c657600281146126d6576126e1565b613d3d60f01b60028303526126e1565b603d60f81b60018303525b508484525050819450505050505b919050565b600081600001549050919050565b61271c828260405180602001604052806000815250612943565b5050565b6001816000016000828254019250508190555050565b60008073ffffffffffffffffffffffffffffffffffffffff166002600084815260200190815260200160002060009054906101000a900473ffffffffffffffffffffffffffffffffffffffff1673ffffffffffffffffffffffffffffffffffffffff1614159050919050565b505050565b505050565b60006127cd8473ffffffffffffffffffffffffffffffffffffffff1661299e565b15612936578373ffffffffffffffffffffffffffffffffffffffff1663150b7a026127f6611e03565b8786866040518563ffffffff1660e01b81526004016128189493929190613687565b602060405180830381600087803b15801561283257600080fd5b505af192505050801561286357506040513d601f19601f820116820180604052508101906128609190612f83565b60015b6128e6573d8060008114612893576040519150601f19603f3d011682016040523d82523d6000602084013e612898565b606091505b506000815114156128de576040517f08c379a00000000000000000000000000000000000000000000000000000000081526004016128d590613769565b60405180910390fd5b805181602001fd5b63150b7a0260e01b7bffffffffffffffffffffffffffffffffffffffffffffffffffffffff1916817bffffffffffffffffffffffffffffffffffffffffffffffffffffffff19161491505061293b565b600190505b949350505050565b61294d83836129c1565b61295a60008484846127ac565b612999576040517f08c379a000000000000000000000000000000000000000000000000000000000815260040161299090613769565b60405180910390fd5b505050565b6000808273ffffffffffffffffffffffffffffffffffffffff163b119050919050565b600073ffffffffffffffffffffffffffffffffffffffff168273ffffffffffffffffffffffffffffffffffffffff161415612a31576040517f08c379a0000000000000000000000000000000000000000000000000000000008152600401612a2890613869565b60405180910390fd5b612a3a81612736565b15612a7a576040517f08c379a0000000000000000000000000000000000000000000000000000000008152600401612a71906137a9565b60405180910390fd5b612a86600083836127a2565b6001600360008473ffffffffffffffffffffffffffffffffffffffff1673ffffffffffffffffffffffffffffffffffffffff1681526020019081526020016000206000828254612ad69190613a52565b92505081905550816002600083815260200190815260200160002060006101000a81548173ffffffffffffffffffffffffffffffffffffffff021916908373ffffffffffffffffffffffffffffffffffffffff160217905550808273ffffffffffffffffffffffffffffffffffffffff16600073ffffffffffffffffffffffffffffffffffffffff167fddf252ad1be2c89b69c2b068fc378daa952ba7f163c4a11628f55a4df523b3ef60405160405180910390a4612b97600083836127a7565b5050565b604051806040016040528060608152602001606081525090565b6040518060e00160405280600081526020016060815260200160608152602001600081526020016000815260200160008152602001600081525090565b828054612bfe90613c1d565b90600052602060002090601f016020900481019282612c205760008555612c67565b82601f10612c3957805160ff1916838001178555612c67565b82800160010185558215612c67579182015b82811115612c66578251825591602001919060010190612c4b565b5b509050612c749190612cc5565b5090565b828054828255906000526020600020908101928215612cb4579160200282015b82811115612cb3578251825591602001919060010190612c98565b5b509050612cc19190612cc5565b5090565b5b80821115612cde576000816000905550600101612cc6565b5090565b6000612cf5612cf084613994565b61396f565b905082815260208101848484011115612d0d57600080fd5b612d18848285613bdb565b509392505050565b600081359050612d2f81614364565b92915050565b600081359050612d448161437b565b92915050565b600081359050612d5981614392565b92915050565b600081519050612d6e81614392565b92915050565b600082601f830112612d8557600080fd5b8135612d95848260208601612ce2565b91505092915050565b600081359050612dad816143a9565b92915050565b600060208284031215612dc557600080fd5b6000612dd384828501612d20565b91505092915050565b60008060408385031215612def57600080fd5b6000612dfd85828601612d20565b9250506020612e0e85828601612d20565b9150509250929050565b600080600060608486031215612e2d57600080fd5b6000612e3b86828701612d20565b9350506020612e4c86828701612d20565b9250506040612e5d86828701612d9e565b9150509250925092565b60008060008060808587031215612e7d57600080fd5b6000612e8b87828801612d20565b9450506020612e9c87828801612d20565b9350506040612ead87828801612d9e565b925050606085013567ffffffffffffffff811115612eca57600080fd5b612ed687828801612d74565b91505092959194509250565b60008060408385031215612ef557600080fd5b6000612f0385828601612d20565b9250506020612f1485828601612d35565b9150509250929050565b60008060408385031215612f3157600080fd5b6000612f3f85828601612d20565b9250506020612f5085828601612d9e565b9150509250929050565b600060208284031215612f6c57600080fd5b6000612f7a84828501612d4a565b91505092915050565b600060208284031215612f9557600080fd5b6000612fa384828501612d5f565b91505092915050565b600060208284031215612fbe57600080fd5b6000612fcc84828501612d9e565b91505092915050565b6000612fe183836134c1565b905092915050565b612ff281613b67565b82525050565b6000613003826139d5565b61300d8185613a03565b93508360208202850161301f856139c5565b8060005b8581101561305b578484038952815161303c8582612fd5565b9450613047836139f6565b925060208a01995050600181019050613023565b50829750879550505050505092915050565b61307681613b79565b82525050565b6000613087826139e0565b6130918185613a14565b93506130a1818560208601613bea565b6130aa81613db6565b840191505092915050565b60006130c0826139eb565b6130ca8185613a25565b93506130da818560208601613bea565b6130e381613db6565b840191505092915050565b60006130f9826139eb565b6131038185613a36565b9350613113818560208601613bea565b61311c81613db6565b840191505092915050565b6000613132826139eb565b61313c8185613a47565b935061314c818560208601613bea565b80840191505092915050565b6000613165603283613a36565b915061317082613dc7565b604082019050919050565b6000613188604183613a47565b915061319382613e16565b604182019050919050565b60006131ab600283613a47565b91506131b682613e8b565b600282019050919050565b60006131ce602583613a36565b91506131d982613eb4565b604082019050919050565b60006131f1601c83613a36565b91506131fc82613f03565b602082019050919050565b6000613214602483613a36565b915061321f82613f2c565b604082019050919050565b6000613237601983613a36565b915061324282613f7b565b602082019050919050565b600061325a600f83613a47565b915061326582613fa4565b600f82019050919050565b600061327d602983613a36565b915061328882613fcd565b604082019050919050565b60006132a0603483613a36565b91506132ab8261401c565b604082019050919050565b60006132c3600483613a47565b91506132ce8261406b565b600482019050919050565b60006132e6603e83613a36565b91506132f182614094565b604082019050919050565b6000613309602083613a36565b9150613314826140e3565b602082019050919050565b600061332c600983613a47565b91506133378261410c565b600982019050919050565b600061334f601583613a36565b915061335a82614135565b602082019050919050565b6000613372600183613a47565b915061337d8261415e565b600182019050919050565b6000613395601883613a36565b91506133a082614187565b602082019050919050565b60006133b8602183613a36565b91506133c3826141b0565b604082019050919050565b60006133db602683613a47565b91506133e6826141ff565b602682019050919050565b60006133fe601d83613a47565b91506134098261424e565b601d82019050919050565b6000613421603d83613a47565b915061342c82614277565b603d82019050919050565b6000613444602e83613a36565b915061344f826142c6565b604082019050919050565b6000613467602b83613a47565b915061347282614315565b602b82019050919050565b6000604083016000830151848203600086015261349a82826130b5565b915050602083015184820360208601526134b482826130b5565b9150508091505092915050565b600060e0830160008301516134d96000860182613564565b50602083015184820360208601526134f182826130b5565b9150506040830151848203604086015261350b82826130b5565b91505060608301516135206060860182613564565b5060808301516135336080860182613564565b5060a083015161354660a0860182613564565b5060c083015161355960c0860182613564565b508091505092915050565b61356d81613bd1565b82525050565b61357c81613bd1565b82525050565b600061358d82613365565b91506135988261331f565b91506135a4828a613127565b91506135af8261319e565b91506135bb8289613127565b91506135c68261317b565b91506135d28288613127565b91506135dd82613414565b91506135e98287613127565b91506135f48261324d565b91506136008286613127565b915061360b8261345a565b91506136178285613127565b9150613622826133ce565b915061362e8284613127565b9150613639826132b6565b915081905098975050505050505050565b6000613655826133f1565b91506136618284613127565b915081905092915050565b60006020820190506136816000830184612fe9565b92915050565b600060808201905061369c6000830187612fe9565b6136a96020830186612fe9565b6136b66040830185613573565b81810360608301526136c8818461307c565b905095945050505050565b60006060820190506136e86000830186612fe9565b6136f56020830185613573565b6137026040830184613573565b949350505050565b600060208201905081810360008301526137248184612ff8565b905092915050565b6000602082019050613741600083018461306d565b92915050565b6000602082019050818103600083015261376181846130ee565b905092915050565b6000602082019050818103600083015261378281613158565b9050919050565b600060208201905081810360008301526137a2816131c1565b9050919050565b600060208201905081810360008301526137c2816131e4565b9050919050565b600060208201905081810360008301526137e281613207565b9050919050565b600060208201905081810360008301526138028161322a565b9050919050565b6000602082019050818103600083015261382281613270565b9050919050565b6000602082019050818103600083015261384281613293565b9050919050565b60006020820190508181036000830152613862816132d9565b9050919050565b60006020820190508181036000830152613882816132fc565b9050919050565b600060208201905081810360008301526138a281613342565b9050919050565b600060208201905081810360008301526138c281613388565b9050919050565b600060208201905081810360008301526138e2816133ab565b9050919050565b6000602082019050818103600083015261390281613437565b9050919050565b60006020820190508181036000830152613923818461347d565b905092915050565b60006020820190506139406000830184613573565b92915050565b600060408201905061395b6000830185613573565b6139686020830184613573565b9392505050565b600061397961398a565b90506139858282613c4f565b919050565b6000604051905090565b600067ffffffffffffffff8211156139af576139ae613d87565b5b6139b882613db6565b9050602081019050919050565b6000819050602082019050919050565b600081519050919050565b600081519050919050565b600081519050919050565b6000602082019050919050565b600082825260208201905092915050565b600082825260208201905092915050565b600082825260208201905092915050565b600082825260208201905092915050565b600081905092915050565b6000613a5d82613bd1565b9150613a6883613bd1565b9250827fffffffffffffffffffffffffffffffffffffffffffffffffffffffffffffffff03821115613a9d57613a9c613cfa565b5b828201905092915050565b6000613ab382613bd1565b9150613abe83613bd1565b925082613ace57613acd613d29565b5b828204905092915050565b6000613ae482613bd1565b9150613aef83613bd1565b9250817fffffffffffffffffffffffffffffffffffffffffffffffffffffffffffffffff0483118215151615613b2857613b27613cfa565b5b828202905092915050565b6000613b3e82613bd1565b9150613b4983613bd1565b925082821015613b5c57613b5b613cfa565b5b828203905092915050565b6000613b7282613bb1565b9050919050565b60008115159050919050565b60007fffffffff0000000000000000000000000000000000000000000000000000000082169050919050565b600073ffffffffffffffffffffffffffffffffffffffff82169050919050565b6000819050919050565b82818337600083830152505050565b60005b83811015613c08578082015181840152602081019050613bed565b83811115613c17576000848401525b50505050565b60006002820490506001821680613c3557607f821691505b60208210811415613c4957613c48613d58565b5b50919050565b613c5882613db6565b810181811067ffffffffffffffff82111715613c7757613c76613d87565b5b80604052505050565b6000613c8b82613bd1565b91507fffffffffffffffffffffffffffffffffffffffffffffffffffffffffffffffff821415613cbe57613cbd613cfa565b5b600182019050919050565b6000613cd482613bd1565b9150613cdf83613bd1565b925082613cef57613cee613d29565b5b828206905092915050565b7f4e487b7100000000000000000000000000000000000000000000000000000000600052601160045260246000fd5b7f4e487b7100000000000000000000000000000000000000000000000000000000600052601260045260246000fd5b7f4e487b7100000000000000000000000000000000000000000000000000000000600052602260045260246000fd5b7f4e487b7100000000000000000000000000000000000000000000000000000000600052604160045260246000fd5b6000601f19601f8301169050919050565b7f4552433732313a207472616e7366657220746f206e6f6e20455243373231526560008201527f63656976657220696d706c656d656e7465720000000000000000000000000000602082015250565b7f222c20226465736372697074696f6e223a202254686973204e4654206769766560008201527f732061636365737320746f207468652067616d65222c2022696d616765223a2060208201527f2200000000000000000000000000000000000000000000000000000000000000604082015250565b7f2023000000000000000000000000000000000000000000000000000000000000600082015250565b7f4552433732313a207472616e736665722066726f6d20696e636f72726563742060008201527f6f776e6572000000000000000000000000000000000000000000000000000000602082015250565b7f4552433732313a20746f6b656e20616c7265616479206d696e74656400000000600082015250565b7f4552433732313a207472616e7366657220746f20746865207a65726f2061646460008201527f7265737300000000000000000000000000000000000000000000000000000000602082015250565b7f4552433732313a20617070726f766520746f2063616c6c657200000000000000600082015250565b7f2c20226d61785f76616c7565223a200000000000000000000000000000000000600082015250565b7f4552433732313a2061646472657373207a65726f206973206e6f74206120766160008201527f6c6964206f776e65720000000000000000000000000000000000000000000000602082015250565b7f4572726f723a20706572736f6e6167656d20707265636973612074657220485060008201527f207061726120617461636172206f20626f73732e000000000000000000000000602082015250565b7f7d205d7d00000000000000000000000000000000000000000000000000000000600082015250565b7f4552433732313a20617070726f76652063616c6c6572206973206e6f7420746f60008201527f6b656e206f776e6572206e6f7220617070726f76656420666f7220616c6c0000602082015250565b7f4552433732313a206d696e7420746f20746865207a65726f2061646472657373600082015250565b7f226e616d65223a20220000000000000000000000000000000000000000000000600082015250565b7f4573746520696e646578206e616f206578697374650000000000000000000000600082015250565b7f7b00000000000000000000000000000000000000000000000000000000000000600082015250565b7f4552433732313a20696e76616c696420746f6b656e2049440000000000000000600082015250565b7f4552433732313a20617070726f76616c20746f2063757272656e74206f776e6560008201527f7200000000000000000000000000000000000000000000000000000000000000602082015250565b7f7d2c207b202274726169745f74797065223a2022506f696e7473222c2022766160008201527f6c7565223a200000000000000000000000000000000000000000000000000000602082015250565b7f646174613a6170706c69636174696f6e2f6a736f6e3b6261736536342c000000600082015250565b7f222c202261747472696275746573223a205b207b202274726169745f7479706560008201527f223a20224865616c746820506f696e7473222c202276616c7565223a20000000602082015250565b7f4552433732313a2063616c6c6572206973206e6f7420746f6b656e206f776e6560008201527f72206e6f7220617070726f766564000000000000000000000000000000000000602082015250565b7f7d2c207b202274726169745f74797065223a2022446f64676520536b696c6c2260008201527f2c202276616c7565223a20000000000000000000000000000000000000000000602082015250565b61436d81613b67565b811461437857600080fd5b50565b61438481613b79565b811461438f57600080fd5b50565b61439b81613b85565b81146143a657600080fd5b50565b6143b281613bd1565b81146143bd57600080fd5b5056fe4142434445464748494a4b4c4d4e4f505152535455565758595a6162636465666768696a6b6c6d6e6f707172737475767778797a303132333435363738392b2fa2646970667358221220bd7333ea3b5062e7fef87b0b401f6e999c20d4e5f73257b3adf9b8b34c0b990364736f6c63430008040033",
  "linkReferences": {},
  "deployedLinkReferences": {}
}